S024000041546D656761333238505F75434F532D49495F436F6C6F725F4C45442E73726563DA
S11300000C9434000C9451000C9451000C94510045
S11300100C9451000C9451000C9451000C94510018
S11300200C9451000C9451000C9451000C94EB046A
S11300300C9451000C9451000C9451000C945100F8
S11300400C9451000C9451000C94E6030C94510050
S11300500C94A9030C9451000C9451000C9451007D
S11300600C9451000C94510011241FBECFEFD8E022
S1130070DEBFCDBF12E0A0E0B1E0EAE8F8E102C0E3
S113008005900D92A437B107D9F726E0A4E7B2E0B2
S113009001C01D92A838B207E1F70E94F10A0C943E
S11300A0430C0C9400008FB7F89408958FBF089503
S11300B081E080938704A091CF04B091D004CD91C6
S11300C0DD91CDBFDEBF0F900FBEFF91EF91DF91A9
S11300D0CF91BF91AF919F918F917F916F915F91DC
S11300E04F913F912F911F910F91FF90EF90DF90CF
S11300F0CF90BF90AF909F908F907F906F905F90C4
S11301004F903F902F901F900F9008950F921F9241
S11301102F923F924F925F926F927F928F929F9213
S1130120AF92BF92CF92DF92EF92FF920F931F9301
S11301302F933F934F935F936F937F938F939F93EB
S1130140AF93BF93CF93DF93EF93FF930FB60F92C9
S1130150CDB7DEB7A091D904B091DA04CD93DD9385
S113016080918C0480938D04A091CF04B091D0042D
S1130170A093D904B093DA04CD91DD91CDBFDEBF55
S11301800F900FBEFF91EF91DF91CF91BF91AF918F
S11301909F918F917F916F915F914F913F912F919B
S11301A01F910F91FF90EF90DF90CF90BF90AF9091
S11301B09F908F907F906F905F904F903F902F9083
S11301C01F900F90089540E0242F30E0FB01E20FD0
S11301D0F31F5081FC01E20FF31F2081521305C06D
S11301E04F5F5111F1CF81E0089580E00895FC0143
S11301F02081FB012083222371F040E04F5F242FF4
S113020030E0FC01E20FF31F5081FB01E20FF31F0A
S113021050835111F3CF0895DC018C91882349F068
S113022080E08F5FFD01E80FF11D90819111F9CFFE
S1130230089580E0089585B78F7E85BF0895259A37
S113024008952D9A08952D980895CF93DF9300D0A3
S1130250CDB7DEB74FE050E060E070E0CE0101962C
S11302600E948E038823B1F30F900F90DF91CF91FA
S11302700895EF92FF920F931F93CF93DF9300D0D3
S1130280CDB7DEB77C018B010E942501C7010E9416
S11302901E0380E191E00E941E034FEF53E060E0F3
S11302A070E0CE0101960E948E038A3049F0B801B5
S11302B089819A810E94E300882379F381E001C057
S11302C080E00F900F90DF91CF911F910F91FF90DD
S11302D0EF900895EF92FF920F931F93CF93DF93C4
S11302E000D0CDB7DEB77C018B010E94250180E0F0
S11302F091E00E941E03C7010E941E038BE091E05F
S11303000E941E03C8010E941E038FE091E00E9418
S11303101E034FEF5FE360E070E0CE0101960E94A0
S11303208E038A3091F063E171E089819A810E94A1
S1130330E30081110CC066E171E089819A810E9419
S1130340E300882331F380E003C080E001C081E052
S11303500F900F90DF91CF911F910F91FF90EF902D
S11303600895EF92FF920F931F93CF93DF9300D0E2
S1130370CDB7DEB78C010E9425018BE191E00E948C
S11303801E03F12CEE24E3944FEF53E060E070E0A1
S1130390CE0101960E948E038A30E1F063E171E0A0
S11303A089819A810E94E300811114C0E981FA8154
S11303B0908190539A3040F766E271E0CF010E9439
S11303C0E3008111E1CFB80189819A810E94F7008D
S11303D0FE2CDACF8F2D0F900F90DF91CF911F91CC
S11303E00F91FF90EF900895CF93DF9300D0CDB796
S11303F0DEB74FEF5FEFBA01CE0101960E948E0384
S113040089819A81DC012C912B32A1F4FC0138966C
S1130410FA83E98318962C912A3341F00996FC015A
S11304209A838983019620812A33C9F73196FA8306
S1130430E98306C063E171E00E94E3008111D9CF32
S113044089819A810F900F90DF91CF910895CF9376
S1130450DF93EC0182E391E00E941E03CE010E942F
S11304600C01682F70E080E090E00E94400380E17E
S113047091E00E941E03CE010E941E03DF91CF91E2
S113048008958832910500F18035910560F49C014E
S1130490220F331F820F931F880F991F20EE31E024
S11304A0281B390B19C0803A910588F0883C9105C6
S11304B088F49C01220F331F820F931F9C01220F8B
S11304C0331F205C334008C020EF30E005C020E03B
S11304D030E002C020EF30E0822F932F089588325D
S11304E0910548F49C01220F331F820F931F9C0136
S11304F0220F331F18C08837910580F0803A910588
S113050080F4AC01440F551F840F951FAC01440FB8
S1130510551F20EC33E0241B350B05C020EF30E0E1
S113052002C020E030E0822F932F0895803591059A
S1130530E8F08837910558F49C01220F331F820F8D
S1130540931F9C01220F331F205E314014C0883C4E
S1130550910578F09C01220F331F820F931F880F9F
S1130560991F20EA35E0281B390B05C020E030E054
S113057002C020EF30E0822F932F08950E94E902F9
S113058008950E94E60208950E94E302089516BCAD
S11305908FEF87BD88BD23EF24BD93E095BD1092F6
S11305A06E003AB130663AB91092B2008093B3004B
S11305B08093B4002093B0009093B1001092700027
S11305C0239A539A0895809587BD0895809588BD90
S11305D0089580958093B4000895A0ECB0E082E083
S11305E08C93E1ECF0E088E1808386E08093C200A4
S11305F08FEC90E09093C5008093C4008C9180644C
S11306008C9380818064808380818068808380E093
S113061090E00E946409909375028093740264E0F0
S113062070E086E792E00E94F40790937F02809343
S11306307E0210928002109281020895CF93DF937C
S11306401F92CDB7DEB710928202909384028093FA
S11306508302FC018081882371F08093C6009E018F
S11306602F5F3F4F4FEF5FEFBA018091740290917B
S113067075020E94940989810F90DF91CF910895AA
S11306808F929F92AF92BF92DF92EF92FF920F935D
S11306901F93CF93DF93CDB7DEB72B970FB6F894A4
S11306A0DEBF0FBECDBF1B860F2EF9E0DF2EF02D6F
S11306B00F2EFAE08F2E912CA12CB12CF02D0D2DA4
S11306C010E0EE24E394F12CEC0EFD1EE00EF11E7E
S11306D0A50194010E94210C605DF7016083622FE3
S11306E0732F842F952FDA94611571058105910577
S11306F031F7C7010E941E032B960FB6F894DEBF94
S11307000FBECDBFDF91CF911F910F91FF90EF905E
S1130710DF90BF90AF909F908F9008950F931F9399
S1130720CF93DF931F92CDB7DEB78C019E012F5F6D
S11307303F4F80917E0290917F020E946108F801F0
S11307409183808389810F90DF91CF911F910F91C5
S113075008951F920F920FB60F9211242F933F9377
S11307604F935F936F937F938F939F93AF93BF93B5
S1130770EF93FF93809182028F5F80938202E091D6
S11307808302F0918402E80FF11D808181110BC076
S11307900E94440580917402909175020E940D0A92
S11307A00E94500502C08093C600FF91EF91BF9153
S11307B0AF919F918F917F916F915F914F913F91F5
S11307C02F910F900FBE0F901F9018951F920F92AC
S11307D00FB60F9211242F933F934F935F936F9310
S11307E07F938F939F93AF93BF93EF93FF938091E6
S11307F0C6008D3071F4E09181028091800220E284
S1130800E29FF0011124E80FF11DEB57FD4F108218
S11308103AC08A3039F5809180028823A1F10E9480
S11308204405609181028091800290E2699FB00149
S11308301124FB01E80FF11DEB57FD4F10821092BC
S113084080026B577D4F80917E0290917F020E94BF
S1130850F908809181028F5F8370809381020E94E6
S1130860500511C090918002E091810220E2E29F44
S1130870F0011124E90FF11DEB57FD4F80839F5FB9
S11308809F7190938002FF91EF91BF91AF919F91DF
S11308908F917F916F915F914F913F912F910F9025
S11308A00FBE0F901F9018952CEA3AE0FA012083AE
S11308B031973083FA0132978083FA01339790831A
S11308C0FA0134971082FA0135971082FA013697AB
S11308D082E08083FA01379783E08083FA013897B6
S11308E084E08083FA01399785E08083FA013A979E
S11308F086E08083FA013B9787E08083FA013C9786
S113090088E08083FA013D9789E08083FA013E976D
S113091080E18083FA013F9781E18083FA01709737
S113092082E18083FA01719783E18083FA017297EF
S113093084E18083FA01739785E18083FA017497D7
S113094086E18083FA01759787E18083FA017697BF
S113095088E18083FA01779789E18083FA017897A7
S113096080E28083FA01799781E28083FA017A97A1
S113097082E28083FA017B9783E28083FA017C9789
S11309806083FA017D977083FA017E9786E2808303
S1130990FA017F9787E28083FA01B09788E2808327
S11309A0FA01B19789E28083FA01B29780E38083E8
S11309B0FA01B39781E38083FA01B49780E88083D6
S11309C045525109842F952F089508950895089547
S11309D00895089508951F920F920FB60F9211244F
S11309E02F933F934F935F936F937F938F939F9333
S11309F0AF93BF93EF93FF930E9444050E94B00509
S1130A000E945005FF91EF91BF91AF919F918F91FB
S1130A107F916F915F914F913F912F910F900FBEF6
S1130A200F901F901895E091D304F0E0E05CFE4F26
S1130A308081E82FF0E0EC52FB4FE081F0E0E05CD5
S1130A40FE4F880F880F880F9081890F80938C0444
S1130A5008950E9453004091880450918904609144
S1130A608A0470918B044F5F5F4F6F4F7F4F4093A9
S1130A7088045093890460938A0470938B040E94C1
S1130A8056000E94E604E5CF80918704813039F452
S1130A908091D8048F3F19F08F5F8093D804089514
S1130AA0CF93809187048130E9F50E945300C82FC9
S1130AB09091D804992329F091509093D8049111DE
S1130AC02EC08091860481112AC00E941305809152
S1130AD08C04E82FF0E0EE0FFF1FE859F94F208156
S1130AE031813093D0042093CF0490918D048917E1
S1130AF0B1F04091900450919104609192047091EE
S1130B0093044F5F5F4F6F4F7F4F40939004509318
S1130B10910460939204709393040E9486008C2F36
S1130B200E945600CF91089580918704811117C0C7
S1130B300E941305E0918C04E0938D04F0E0EE0F25
S1130B40FF1FE859F94F808191819093D0048093DD
S1130B50CF049093DA048093D9040E945800089536
S1130B601F93CF93DF9380918704813009F041C0B4
S1130B70C0918E04D0918F0488898F30D1F111E017
S1130B800E9453004A855B856C857D85411551051E
S1130B906105710531F141505109610971094A87B3
S1130BA05B876C877D87452B462B472BD1F49E852D
S1130BB0292F277321F0987C9E871F8701C01F86E9
S1130BC09E8593FD0EC02091D3049C89922B909313
S1130BD0D304EA89F0E0EC52FB4F20819B89922BED
S1130BE090830A80DB81C02D0E94560088898F3053
S1130BF039F6DF91CF911F910895E091D904F091D6
S1130C00DA04978386832289DC01A20FB11D16962C
S1130C103C9116972389232B16962C93DC01159669
S1130C203C9115972489232B15962C93A289B0E027
S1130C30AC52BB4F838980959C9189238C938111FD
S1130C4007C0848980959091D30489238093D30429
S1130C500895FC018289DB01A80FB11D8389809569
S1130C6016969C911697892316968C93811106C02B
S1130C7084898095FB0195818923858308951F9339
S1130C80CF93DF93DC011596EC911597F0E0E05CCF
S1130C90FE4F1081C12FD0E0FC01EC0FFD1FE68157
S1130CA0F0E0E05CFE4F110F110F110F8081180F5F
S1130CB0E12FF0E0EE0FFF1FE859F94F0190F081AA
S1130CC0E02D1286138614861586718760874095F9
S1130CD0868548234687278743FD0CC09091D3041B
S1130CE08489892B8093D304CC52DB4F98818389E8
S1130CF0892B8883BD01CF010E942906812FDF91B2
S1130D00CF911F910895FC011582168217820895D0
S1130D10FC016115710531F0680F791F1192E61716
S1130D20F707E1F708950E94E7041092D80410929F
S1130D3086041092960410928704109290041092E4
S1130D4091041092920410929304109288041092C9
S1130D50890410928A0410928B041092D304109286
S1130D60D4041092D50410928D0410928C04109225
S1130D70D0041092CF041092DA041092D9046DEBCF
S1130D8070E08BEA95E00E94880660E270E088E6F5
S1130D9096E00E94880680E090E045E1489FF001DB
S1130DA0499FF00D1124E555FA4F0196489F900193
S1130DB0499F300D112425553A4F338322838830BF
S1130DC0910561F7109256061092550610928F0401
S1130DD010928E048BEA95E090939504809394048A
S1130DE060E570E08BE595E00E94880680E090E085
S1130DF09C012F5F3F4FFC01EE0FFF1FEE0FFF1F03
S1130E00EE0FFF1FE55AFA4F1082C901880F991F90
S1130E10880F991F880F991F855A9A4F928381834F
S1130E20C9012930310521F71092A3051092A505B7
S1130E301092A4058BE595E09093D7048093D60493
S1130E400E9445092FE04AE555E060E070E089E240
S1130E5095E00E94410A0E94E8040895CF930E94FD
S1130E605300C82F8091D80481112EC0809186042C
S1130E7081112AC00E94130580918C04E82FF0E0B0
S1130E80EE0FFF1FE859F94F208131813093D004D0
S1130E902093CF0490918D048917B1F04091900470
S1130EA05091910460919204709193044F5F5F4F4D
S1130EB06F4F7F4F4093900450939104609392043A
S1130EC0709393040E9486008C2F0E945600CF9149
S1130ED00895AF92BF92CF92DF92FF920F931F9328
S1130EE0CF93DF93F82E8B010E945300C09194049A
S1130EF0D0919504209709F46AC02A813B813093EC
S1130F009504209394040E94560019830883F88A58
S1130F101E861F861A861B861C861D860F2D069527
S1130F20069506950A8B8F2D8770898B41E050E0DA
S1130F3060E070E05A016B0104C0AA0CBB1CCC1C1D
S1130F40DD1C0A95D2F7AC8A04C0440F551F661FF6
S1130F50771F8A95D2F74B8B1F821E8219861886BB
S1130F60CE010E94E904CE010E94E5040E945300D0
S1130F70EF2DF0E0EE0FFF1FE859F94FD183C08346
S1130F80E0918E04F0918F04FB83EA831D821C821E
S1130F90309711F0D583C483D0938F04C0938E040B
S1130FA02091D3049C89922B9093D304EA89F0E096
S1130FB0EC52FB4F20819B89922B90839091960455
S1130FC09F5F909396040E94560080E003C00E94A5
S1130FD0560082E4DF91CF911F910F91FF90DF9033
S1130FE0CF90BF90AF900895CF92DF92EF92FF928F
S1130FF00F931F93CF93DF937C016B018091D804EF
S113100081114EC00E945300C091D604D091D704E0
S1131010209709F44AC029813A813093D704209358
S1131020D6040E9456000E9453000091D1041091EE
S1131030D2040115110529F1F80120813181309381
S1131040D2042093D1040E945600F801F382E28274
S1131050C601880F991F8E0D9F1D95838483F78287
S1131060E682F186E086D386C2861586148682E0FF
S113107088831C821B821A830983CE010E94830603
S113108011C02091D6043091D7043A832983D09398
S1131090D704C093D6040E945600C0E0D0E002C03A
S11310A0C0E0D0E08C2F9D2F03C00E945600FACFE1
S11310B0DF91CF911F910F91FF90EF90DF90CF9030
S11310C00895BF92CF92DF92EF92FF920F931F93F6
S11310D0CF93DF938C016A017B01E901DC018C91E0
S11310E0823029F081E08883E12CF12C76C0809154
S11310F0D804882329F082E08883E12CF12C6DC088
S113110080918604882329F08DE08883E12CF12CDA
S113111064C00E945300B82ED8011196ED91FC9141
S113112012972485358521153105C1F0A085B18537
S1131130ED90FD90B187A087215031093587248730
S113114084819581A817B90721F4828193819187BD
S113115080878B2D0E94560018823FC0E091D904ED
S1131160F091DA048685846086871786C286D386E2
S1131170E486F586C8010E94FD058B2D0E94560069
S11311800E942E070E945300D82EE091D904F091BA
S1131190DA049785992319F0923051F404C0E0845D
S11311A0F18418820DC08EE08883E12CF12C08C0F4
S11311B0B801CF010E9429068AE08883E12CF12C32
S11311C0E091D904F091DA04168617861782168204
S11311D0118610868D2D0E9456008E2D9F2DDF9135
S11311E0CF911F910F91FF90EF90DF90CF90BF9020
S11311F00895FF920F931F93CF93DF93EC018B011C
S113120088818230D9F50E945300F82E8D8188237D
S113121069F020E044E0B801CE010E943F068F2D22
S11312200E9456000E942E0780E029C0E981FA81BD
S113123044855585228533854217530728F08F2D21
S11312400E9456008EE11BC0A681B7810D931D93A9
S1131250B783A683248535852F5F3F4F3587248741
S113126024813581A217B30721F482819381978366
S113127086838F2D0E94560080E001C081E0DF91BB
S1131280CF911F910F91FF900895CF93DF9368E35F
S113129070E087E994E00E948806E7E9F4E0A5EAB3
S11312A0B4E0B183A083C3EBD4E0CD93DC93A1EC91
S11312B0B4E0B983A8831D921C92F093D204E09306
S11312C0D104DF91CF9108950F931F93CF93DF93B0
S11312D08C018091D80481111AC00E945300C091DE
S11312E0D604D091D7042097B9F029813A8130935C
S11312F0D7042093D6040E94560083E088831C837D
S11313000B831A821982CE010E94830602C0C0E0B8
S1131310D0E08C2F9D2F03C00E945600FACFDF919E
S1131320CF911F910F910895BF92CF92DF92EF92C8
S1131330FF920F931F93CF93DF93EC016A017B011C
S113134089018881833021F081E0F90180835BC0C9
S11313508091D804882321F082E0F901808353C06E
S113136080918604882321F08DE0F90180834BC0AD
S11313700E945300B82E2B813C812115310549F080
S1131380215031093C832B830E945600F8011082BE
S11313903AC0E091D904F091DA04868581608687A9
S11313A01786C286D386E486F586CE010E94FD05A3
S11313B08B2D0E9456000E942E070E945300F82E87
S11313C0E091D904F091DA049785992319F09230C9
S11313D041F403C0F80110820BC08EE0F801808351
S11313E007C0BE01CF010E9429068AE0F80180836C
S11313F0E091D904F091DA041686178617821682D2
S11314008F2D0E945600DF91CF911F910F91FF9075
S1131410EF90DF90CF90BF9008951F93CF93DF9309
S1131420EC018881833041F50E945300182F9D817F
S1131430992371F020E041E060E070E0CE010E9469
S11314403F06812F0E9456000E942E0780E015C09F
S11314502B813C812F3F8FEF380749F02F5F3F4F9F
S11314603C832B83812F0E94560080E006C0812F8D
S11314700E94560083E301C081E0DF91CF911F9168
S113148008959F92AF92BF92CF92DF92EF92FF9214
S11314900F931F93CF93DF938C017B016A01922EEC
S11314A00E9453009091D804992321F00E94560081
S11314B01CE345C0C92DD0E0FE01EE0FFF1FE85923
S11314C0F94F0190F081E02DEF2BB1F5FE01EE0F05
S11314D0FF1FE859F94F21E030E0318320830E9457
S11314E0560020E030E0A601B701C8010E94540470
S11314F0A12CB12CC12CD12CE12CF12C870120E0A2
S113150030E040E050E0BC01892D0E946907182FAB
S1131510811107C080918704813089F40E942E07CD
S11315200EC00E945300CC0FDD1FC859D94F198239
S113153018820E94560003C00E94560018E2812FB0
S1131540DF91CF911F910F91FF90EF90DF90CF909B
S1131550BF90AF909F9008958091D9049091DA0440
S11315600E94EA046AEF70E080E090E00E94B90A09
S1131570F9CFCF92DF92EF92FF926B017C018091C1
S1131580D804811129C080918604811125C0C11419
S1131590D104E104F10401F10E945300E091D90463
S11315A0F091DA04A289B0E0AC52BB4F93899095D4
S11315B02C9192239C93911107C09489909520912A
S11315C0D30492239093D304C286D386E486F5860B
S11315D00E9456000E942E07FF90EF90DF90CF905C
S11315E00895F8940E949306109285001092840046
S11315F089EF90E0909389008093880010928B008B
S113160010928A00109280008CE0809381001092E6
S1131610820082E086BB80936F000E941B010E94BF
S11316201F010E94C7020E94ED020E94ED0220E009
S113163044E054E060E070E08CE69BE00E94410AE4
S113164022E044E854E060E070E086E39BE00E941E
S1131650410A0E94940580E090E00895FC01908185
S11316609295907F81818F70892B08958091850454
S1131670882309F10E94210161E070E080E090E09C
S11316800E94B90A0E9423016DE170E080E090E0BD
S11316900E94B90A0E94210161E070E080E090E0BC
S11316A00E94B90A0E9423016BED70E080E090E093
S11316B00E94B90ADBCF0E9421016EE170E080E054
S11316C090E00E94B90A0E9423016EE170E080E07C
S11316D090E00E94B90ACACFCF93DF93CDB7DEB7AB
S11316E0A0970FB6F894DEBF0FBECDBF11E021C0A6
S11316F060E472E086E492E00E9439018823C9F034
S113170063E171E08DE492E00E943901882389F05D
S113171063E171E082E592E00E943901882349F097
S113172063E171E08EE592E00E943901811110932A
S11317308504809185048823D9F2F12C00E010E01F
S11317400E94F401FC019081923571F4CF0101965D
S11317500E942E0B182F0E94BE02802F0E94C102ED
S11317608F2D0E94C402ECCF973479F4CF010196F7
S11317700E942E0B082F812F0E94BE02802F0E94F0
S1131780C1028F2D0E94C402DBCF923479F4CF01C1
S113179001960E942E0BF82E812F0E94BE02802FEC
S11317A00E94C1028F2D0E94C402CACF9834B9F49A
S11317B0CF0101960E942E0BE82E90E00E94410278
S11317C00E94BE028E2D90E00E946F020E94C10210
S11317D08E2D90E00E9496020E94C402B1CF9E34E6
S11317E041F4BE016F5F7F4FCF0101960E94F70065
S11317F0A7CF903599F4BF016F5F7F4FCE0101965B
S11318000E946A01882329F083E191E00E94270263
S113181097CF86E191E00E94270292CF993409F094
S11318208FCFCE0101960E94B101882329F0CE0109
S113183001960E94270284CF86E191E00E9427024C
S11318407FCFA1E21A2EAA1BBB1BFD010DC0AA1F4C
S1131850BB1FEE1FFF1FA217B307E407F50720F015
S1131860A21BB30BE40BF50B661F771F881F991F90
S11318701A9469F760957095809590959B01AC01D9
S10D1880BD01CF010895F894FFCFD5
S113188A41542B43574A41503D2200222C22002224
S113189A0D0A004F4B004641494C0041542B434921
S11318AA4653520D0A003139322E3136382E342E2F
S11318BA310041542B43495053454E443D302C008A
S11318CA00000100020001000300010002000100FF
S11318DA04000100020001000300010002000100EB
S11318EA05000100020001000300010002000100DA
S11318FA04000100020001000300010002000100CB
S113190A06000100020001000300010002000100B8
S113191A04000100020001000300010002000100AA
S113192A0500010002000100030001000200010099
S113193A040001000200010003000100020001008A
S113194A0700010002000100030001000200010077
S113195A040001000200010003000100020001006A
S113196A0500010002000100030001000200010059
S113197A040001000200010003000100020001004A
S113198A0600010002000100030001000200010038
S113199A040001000200010003000100020001002A
S11319AA0500010002000100030001000200010019
S11319BA040001000200010003000100020001000A
S11319CA72656164790041542B5253540041544561
S11319DA300041542B4349504D55583D3100415430
S11319EA2B4349505345525645523D312C203536E6
S10719FA3738000076
S9030000FC
